{
  "contractName": "TaskContract",
  "abi": [
    {
      "inputs": [
        {
          "internalType": "address",
          "name": "_address",
          "type": "address"
        }
      ],
      "name": "getCid",
      "outputs": [
        {
          "internalType": "string",
          "name": "",
          "type": "string"
        }
      ],
      "stateMutability": "view",
      "type": "function",
      "constant": true
    },
    {
      "inputs": [
        {
          "internalType": "address",
          "name": "_address",
          "type": "address"
        },
        {
          "internalType": "string",
          "name": "_cid",
          "type": "string"
        }
      ],
      "name": "setCid",
      "outputs": [],
      "stateMutability": "nonpayable",
      "type": "function"
    },
    {
      "inputs": [
        {
          "internalType": "address",
          "name": "_retailer",
          "type": "address"
        },
        {
          "internalType": "address",
          "name": "_customer",
          "type": "address"
        },
        {
          "internalType": "string",
          "name": "retailerCid",
          "type": "string"
        },
        {
          "internalType": "string",
          "name": "customerCid",
          "type": "string"
        }
      ],
      "name": "setCustomerRetailer",
      "outputs": [],
      "stateMutability": "nonpayable",
      "type": "function"
    }
  ],
  "bytecode": "0x608060405234801561001057600080fd5b50610745806100206000396000f3fe608060405234801561001057600080fd5b50600436106100415760003560e01c806370c4cfcf14610046578063bf14b4fe14610062578063d34197231461007e575b600080fd5b610060600480360381019061005b91906104dc565b6100ae565b005b61007c6004803603810190610077919061057b565b61015a565b005b610098600480360381019061009391906105d7565b6101b1565b6040516100a5919061068c565b60405180910390f35b816000808673ffffffffffffffffffffffffffffffffffffffff1673ffffffffffffffffffffffffffffffffffffffff1681526020019081526020016000209080519060200190610100929190610281565b50806000808573ffffffffffffffffffffffffffffffffffffffff1673ffffffffffffffffffffffffffffffffffffffff1681526020019081526020016000209080519060200190610153929190610281565b5050505050565b806000808473ffffffffffffffffffffffffffffffffffffffff1673ffffffffffffffffffffffffffffffffffffffff16815260200190815260200160002090805190602001906101ac929190610281565b505050565b60606000808373ffffffffffffffffffffffffffffffffffffffff1673ffffffffffffffffffffffffffffffffffffffff16815260200190815260200160002080546101fc906106dd565b80601f0160208091040260200160405190810160405280929190818152602001828054610228906106dd565b80156102755780601f1061024a57610100808354040283529160200191610275565b820191906000526020600020905b81548152906001019060200180831161025857829003601f168201915b50505050509050919050565b82805461028d906106dd565b90600052602060002090601f0160209004810192826102af57600085556102f6565b82601f106102c857805160ff19168380011785556102f6565b828001600101855582156102f6579182015b828111156102f55782518255916020019190600101906102da565b5b5090506103039190610307565b5090565b5b80821115610320576000816000905550600101610308565b5090565b6000604051905090565b600080fd5b600080fd5b600073ffffffffffffffffffffffffffffffffffffffff82169050919050565b600061036382610338565b9050919050565b61037381610358565b811461037e57600080fd5b50565b6000813590506103908161036a565b92915050565b600080fd5b600080fd5b6000601f19601f8301169050919050565b7f4e487b7100000000000000000000000000000000000000000000000000000000600052604160045260246000fd5b6103e9826103a0565b810181811067ffffffffffffffff82111715610408576104076103b1565b5b80604052505050565b600061041b610324565b905061042782826103e0565b919050565b600067ffffffffffffffff821115610447576104466103b1565b5b610450826103a0565b9050602081019050919050565b82818337600083830152505050565b600061047f61047a8461042c565b610411565b90508281526020810184848401111561049b5761049a61039b565b5b6104a684828561045d565b509392505050565b600082601f8301126104c3576104c2610396565b5b81356104d384826020860161046c565b91505092915050565b600080600080608085870312156104f6576104f561032e565b5b600061050487828801610381565b945050602061051587828801610381565b935050604085013567ffffffffffffffff81111561053657610535610333565b5b610542878288016104ae565b925050606085013567ffffffffffffffff81111561056357610562610333565b5b61056f878288016104ae565b91505092959194509250565b600080604083850312156105925761059161032e565b5b60006105a085828601610381565b925050602083013567ffffffffffffffff8111156105c1576105c0610333565b5b6105cd858286016104ae565b9150509250929050565b6000602082840312156105ed576105ec61032e565b5b60006105fb84828501610381565b91505092915050565b600081519050919050565b600082825260208201905092915050565b60005b8381101561063e578082015181840152602081019050610623565b8381111561064d576000848401525b50505050565b600061065e82610604565b610668818561060f565b9350610678818560208601610620565b610681816103a0565b840191505092915050565b600060208201905081810360008301526106a68184610653565b905092915050565b7f4e487b7100000000000000000000000000000000000000000000000000000000600052602260045260246000fd5b600060028204905060018216806106f557607f821691505b60208210811415610709576107086106ae565b5b5091905056fea2646970667358221220757f579a8d43958b2d8d9973776f8f62b7d4ec9efee845a709e2b0441054056964736f6c634300080b0033",
  "immutableReferences": {},
  "source": "// SPDX-License-Identifier: MIT\r\npragma solidity ^0.8.0;\r\n\r\ncontract TaskContract {\r\n    mapping (address => string)walletIdToCid;\r\n\r\n    function getCid(address _address) external view returns (string memory){\r\n        return walletIdToCid[_address];\r\n    }\r\n\r\n    function setCid(address _address , string memory _cid) external {\r\n        walletIdToCid[_address] = _cid;\r\n    }\r\n\r\n    function setCustomerRetailer(address _retailer , address _customer , string memory retailerCid , string memory \r\n    customerCid) external {\r\n        walletIdToCid[_retailer] = retailerCid;\r\n        walletIdToCid[_customer] = customerCid;\r\n    }\r\n}",
  "sourcePath": "C:\\Users\\chanp\\OneDrive\\Desktop\\Projects\\React\\flipkart-rewards-hub\\backend\\contracts\\TaskContract.sol",
  "compiler": {
    "name": "solc",
    "version": "0.8.11+commit.d7f03943.Emscripten.clang"
  },
  "schemaVersion": "3.4.4",
  "updatedAt": "2023-08-17T16:08:55.093Z",
  "networkType": "ethereum",
  "devdoc": {
    "kind": "dev",
    "methods": {},
    "version": 1
  },
  "userdoc": {
    "kind": "user",
    "methods": {},
    "version": 1
  }
}